S017000031362E4932435F5254435F43414C432E7372656300
S113000045C0000061C000005FC000005DC000008A
S11300105BC0000059C0000057C0000055C000007C
S113002053C0000051C000004FC000004DC000008C
S11300304BC0000049C0000047C0000045C000009C
S1130040EBC7000041C000003FC000003DC00000FD
S11300503BC0000039C0000037C0000035C00000BC
S113006033C0000031C000002FC000002DC00000CC
S11300702BC0000029C0000027C0000025C00000DC
S113008023C0000021C000001FC0000011241FBEB7
S1130090CFEFD0E1DEBFCDBF11E0A0E0B1E0EEEBE9
S11300A0FCE100E00BBF02C007900D92A03AB1073B
S11300B0D9F722E0A0EAB1E001C01D92A830B2074E
S11300C0E1F77FD70C945D0E9BCF81B3877081BB22
S11300D00895682F70E0FB01E75EFE4F908180B3C6
S11300E021E030E0A901092E02C0440F551F0A94F3
S11300F0E2F7282F30E02423352302C035952795D5
S11301009A95E2F721303105C9F4FB01EE0FFF1F88
S1130110E056FE4F80819181009781F4EFE5FAEE7D
S11301203197F1F700C00000660F771FFB01E0561E
S1130130FE4F21E030E0318320830895232BC1F466
S1130140FB01EE0FFF1FE056FE4F8081918181304D
S1130150910589F4EFE5FAEE3197F1F700C000005C
S1130160660F771FFB01E056FE4F1182108208953F
S113017080E090E0089580E090E008954F925F92CF
S11301806F927F928F929F92AF92BF92CF92DF92A3
S1130190EF92FF920F931F93CF93DF9301D1622EBF
S11301A0732E842E952ED62FC72F482E592E37C046
S11301B001969093B6018093B501F2D0A22EB32E8E
S11301C0C42ED52EE62EF72E082FE92F1B32A1F4CC
S11301D0262D372D482D592D6D2F7C2F842D952DAF
S11301E01E2F0E94500B622E732E842E952ED62F16
S11301F0C72F482E592E13C0262D372D482D592D83
S11302006D2F7C2F842D952D1E2F0E94590B622E4D
S1130210732E842E952ED62FC72F482E592E8091BB
S1130220B5019091B601FC01E754FE4F10811B32D9
S113023009F4BECF1D3209F4BBCF262D372D482D2E
S1130240592D6D2F7C2F842D952DDF91CF911F91EA
S11302500F91FF90EF90DF90CF90BF90AF909F9061
S11302608F907F906F905F904F9008953F924F9240
S11302705F926F927F928F929F92AF92BF92CF9232
S1130280DF92EF92FF920F931F93CF93DF938091AE
S1130290B5019091B601FC01E754FE4F208128324C
S11302A009F057C001969093B6018093B50166DFBB
S11302B0E091B501F091B601DF01A754BE4FAC91B6
S11302C0A93231F43196F093B601E093B50156C0EA
S11302D0E1E0E093B40152C0F0E0F097AF2FAA0F31
S11302E0AA0B01E00E94370B322E432E542E652EAA
S11302F0762E872E982EB92F02E00E94370BA22E5D
S1130300B32EC42ED52EE62EF72E082F192F232D0B
S1130310342D452D562D672D782D892D9B2F0E9428
S1130320500BA22EB32EC42ED52EE62EF72E082F58
S1130330192F2E2F3F2F4A2F5A2F6A2F7A2F8A2FA9
S11303409A2F0E94500B2196D093B601C093B50109
S113035008C020E030E040E050E060E070E080E081
S113036090E0C091B501D091B601FE01E754FE4F73
S1130370E081F0EDFE0FFA3008F4AECFDF91CF91BB
S11303801F910F91FF90EF90DF90CF90BF90AF90AF
S11303909F908F907F906F905F904F903F900895C3
S11303A04F925F926F927F928F929F92AF92BF9281
S11303B0CF92DF92EF92FF920F931F93CF93DF932D
S11303C055DF622E732E842E952ED62FC72F482EDE
S11303D0592E43C001969093B6018093B50146DF30
S11303E0A22EB32EC42ED52EE62EF72E082F1A32A7
S11303F0A1F4192F262D372D482D592D6D2F7C2F23
S1130400842D952D0E94160A622E732E842E952E0D
S1130410D62FC72F482E592E20C0A0E00E94620B71
S1130420A1F0192F262D372D482D592D6D2F7C2FF6
S1130430842D952D0E94690A622E732E842E952E8A
S1130440D62FC72F482E592E08C0612C712C812C11
S1130450912CD0E0C0E0412C512C8091B5019091B9
S1130460B601FC01E754FE4F10811A3209F4B2CFF1
S11304701F3209F4AFCF262D372D482D592D6D2F5E
S11304807C2F842D952DDF91CF911F910F91FF909B
S1130490EF90DF90CF90BF90AF909F908F907F9020
S11304A06F905F904F90089580E090E040E050E0BE
S11304B010C0FC01E754FE4F2081283219F44F5F2D
S11304C05F4F04C0293211F441505109552344F0BF
S11304D001962091B7013091B801821793074CF32C
S11304E0452B61F081E08093B40120E030E040E0EE
S11304F050E060E070E080E090E008951092B60172
S11305001092B5011092B40139CE08952F923F9202
S11305104F925F926F927F928F929F92AF92BF920F
S1130520CF92DF92EF92FF920F931F93CF93DF93BB
S1130530CDB7DEB7A1970FB6F894DEBF0FBECDBF1F
S11305402A8F3B8F4C8FF52E762E672E382E292E30
S11305502801A0E00E94620B29F480E3F801808363
S1130560118282C02A8D3B8D4C8DA0E00E94620BCB
S11305706CF40E94F00A2A8F3B8F4C8FF52E762E56
S1130580672E382E292EF1E0FF8F01C01F8E812C9B
S1130590912C59A248A2532C322C2F2C33C0C401C5
S11305A001969E8F8D8F0F2EFAE0AF2EF02DB12C79
S11305B0C12CD12CE12CF12C00E010E02A8D3B8DD4
S11305C04C8D522D672D762D852D932D80D7E1E00E
S11305D0F0E0EC0FFD1FE80DF91D205D20832A8D4E
S11305E03B8D4C8D522D672D762D852D932D71D7F6
S11305F02A8F3B8F4C8F252E762E672E582E392E20
S11306008D8C9E8C2A8D3B8D4C8D522D672D762D95
S1130610852D932DA0E00E94620B11F00CF0BFCF4A
S113062048A059A09F8D992331F08DE2F201808377
S113063081E090E012C080E090E00FC0D201A80FEA
S1130640B91FF1E08F1A9108E1E0F0E0EC0FFD1F13
S1130650E80DF91D20812C9301961814190474F3E4
S1130660F201E80FF91F1082A1960FB6F894DEBFCD
S11306700FBECDBFDF91CF911F910F91FF90EF90EF
S1130680DF90CF90BF90AF909F908F907F906F90AE
S11306905F904F903F902F9008951092B801109260
S11306A0B7011092B9011092B4011092B3011092E3
S11306B0AA011092AB011092AC011092AD011092FC
S11306C0AE011092AF011092B0011092B1011092DC
S11306D0B2010895E2CF08958091B301882311F007
S11306E0DCCF08958091B7019091B80118161906CE
S11306F04CF401979093B8018093B701FC01E7543F
S1130700FE4F108208958091B3018111C6DF80915C
S1130710B7019091B8018133910584F49C012F5F56
S11307203F4F3093B8012093B701FC01E754FE4FCB
S113073048E24083F901E754FE4F10820895809106
S1130740B3018111AADF8091B7019091B80181337F
S1130750910584F49C012F5F3F4F3093B80120939F
S1130760B701FC01E754FE4F49E24083F901E75425
S1130770FE4F10820895CF93C82F8091B301882330
S113078069F080ED8C0F8A3040F0CB3231F0CD32FD
S113079021F0CA3211F0CF3209F47FDF80ED8C0FE3
S11307A08A3040F0CB3231F0CD3221F0CA3211F030
S11307B0CF32B9F48091B7019091B801813391059A
S11307C07CF59C012F5F3F4F3093B8012093B70114
S11307D0FC01E754FE4FC083F901E754FE4F108239
S11307E01FC0CD33E9F4E091B701F091B801E754AB
S11307F0FE4F108259DE2093AB013093AC0140933D
S1130800AD015093AE016093AF017093B00180933A
S1130810B1019093B20181E08093AA018093B30166
S1130820CF910895CF92DF92EF92FF920F931F938F
S1130830CF93DF93CDB7DEB7E7970FB6F894DEBF5B
S11308400FBECDBFE62EF72E2091B7013091B8012F
S11308502115310551F421E1EEE1F1E0A82FB92F82
S113086001900D922A95E1F726C02131310594F4C7
S113087029EB31E03F932F932FE231E03F932F9305
S11308809F938F933FD70F900F900F900F900F90DF
S11308900F9011C027553E4F3F932F932FE231E025
S11308A03F932F939F938F932DD70F900F900F907B
S11308B00F900F900F908091AA01882309F466C0CD
S11308C08091B401882351F081E1E5E3F1E0AE2D9C
S11308D0BF2D01900D928A95E1F761C06E018FE101
S11308E0C80ED11C2091AB013091AC014091AD01F7
S11308F05091AE016091AF017091B0018601809179
S1130900B1019091B20102DEDF92CF9286E491E0D0
S11309109F938F930E5111091F930F93F3D6F801F0
S113092001900020E9F73197E01BF10B0F900F9035
S11309300F900F900F900F90E131F10584F41F9305
S11309400F938FE291E09F938F93FF92EF92DAD609
S11309500F900F900F900F900F900F9020C07097F2
S113096081E090E08C0F9D1FE80FF91FFF93EF9338
S11309708FE291E09F938F93FF92EF92C3D60F90F3
S11309800F900F900F900F900F9009C081E1EAE44F
S1130990F1E0AE2DBF2D01900D928A95E1F7E79617
S11309A00FB6F894DEBF0FBECDBFDF91CF911F917C
S11309B00F91FF90EF90DF90CF900895982F92952C
S11309C09F70990F292F220F220F920F8F70890F7A
S11309D008959DEC899F912D112496959695969551
S11309E020E1929FA0011124990F292F220F220F99
S11309F0920F891B842B0895BF92CF92DF92EF92BE
S1130A00FF920F931F93CF93DF93EC0196D080ED69
S1130A109CD080E09AD0B7D090D081ED96D09FD072
S1130A20B82E9DD0C82E9BD0D82E99D0E82E97D022
S1130A30F82E95D0082F9DD0182FA5D08B2D8F7709
S1130A40BDDF88838C2DBADF89838D2D8F73B6DF4C
S1130A508A838E2DB3DF8B838F2DB0DF8C83802F21
S1130A60ADDF8D83812FAADF90E08053984F9F8361
S1130A708E83DF91CF911F910F91FF90EF90DF90C4
S1130A80CF90BF900895CF93DF93EC0156D080EDC3
S1130A905CD080E05AD088819CDF8F7756D08981E2
S1130AA098DF53D08A8195DF8F734FD08B8191DF8C
S1130AB04CD08C818EDF49D08D818BDF46D04E8126
S1130AC05F819A013695279536952795ABE7B4E172
S1130AD09ED496958795342F24E6829F301911244D
S1130AE0832F77DF32D04FD0DF91CF9108950F93CA
S1130AF01F93CF938C0117D020D080ED26D080E0B7
S1130B0024D041D01AD081ED20D033D0C82F3BD08F
S1130B10CC231CF4C801B7DF02C0C8016DDFCF913C
S1130B201F910F91089581B3816081BB81B382606D
S1130B3081BB80E280937000089584EA80937400FE
S1130B40809174008823E4F708958093730084EC03
S1130B5080937400809174008823E4F7089584ECF2
S1130B6080937400809174008823E4F7809173006B
S1130B70089584E880937400809174008823E4F7D6
S1130B8080917300089584E98093740008959FEF21
S1130B909BBB9BB370E043E050E0461B570B21E046
S1130BA030E002C0220F331F4A95E2F72095292333
S1130BB02BBB20E030E002C02F5F3F4F24313105D2
S1130BC0DCF349B390E0FC01349621E030E00E2ED2
S1130BD002C0220F331F0A94E2F750E02423352386
S1130BE002C035952795EA95E2F7211118C0FC015A
S1130BF0EE0FFF1FEE0FFF1FE050FF4FE60FF71F32
S1130C003081313061F4880F991F880F991F80500B
S1130C109F4FFC01E60FF71F108280E008952130FA
S1130C20F1F4FC01EE0FFF1FEE0FFF1FE050FF4F2A
S1130C30E60FF71F2081211114C0880F991F880F18
S1130C40991FFC01E050FF4FE60FF71F21E02083BE
S1130C50855A9E4FFC01E60FF71F8081089580E0BE
S1130C60089580E008958FE08ABB8FEF8BBB0895D1
S1130C70CF93DF93D0E00BC06C2F8D2F88DF8111D1
S1130C8009C0CF5F01C0C0E0C430B0F3DF5FD4302F
S1130C90D0F380E0DF91CF91089585B3846085BB64
S1130CA085E08A95F1F7000085B38B7F85BB85E0ED
S1130CB08A95F1F70000089595B39F70807F892B82
S1130CC085BBEBCF0895CF93C82F611104C085B3C2
S1130CD08E7F85BB03C085B3816085BB85B38D7F63
S1130CE085BB8C2F807FE8DF8C2F8295807FE4DFAB
S1130CF087EC90E00197F1F700C00000CF910895D0
S1130D0060E0E1CF089561E0DECF08950F931F9373
S1130D10CF938C01C0E002C0F6DFCF5FF801EC0F87
S1130D20F11D80818111F8CFCF911F910F9108950A
S1130D3081E0E6DF8FE39FE10197F1F700C0000057
S1130D40089584B3876F84BB85B3887085BB2FEF08
S1130D5089EF90E0215080409040E1F700C000000E
S1130D6080E3AADF8FE19EE40197F1F700C0000061
S1130D7080E3A2DF87E592E00197F1F700C000006D
S1130D8080E39ADF87E592E00197F1F700C0000065
S1130D9080E292DF8FE39FE10197F1F700C000004A
S1130DA088E2AEDF8CE0ACDFC3DF86E0A9CF089534
S1130DB08111605C862F8068A3CF0895811102C0E1
S1130DC08CE001C08EE0611181609ACF0895109289
S1130DD0FC011EC08093FB017CD9892BA1F080917A
S1130DE0FB0144D28091010290910202A09103027E
S1130DF0B09104028093FD019093FE01A093FF0142
S1130E00B093000208958091FC018F5F8093FC01F0
S1130E108091FC018530F0F2089580910102909157
S1130E200202A0910302B09104024091F701509193
S1130E30F8016091F9017091FA01841B950BA60BDE
S1130E40B70BCC97A105B10558F18091010290919F
S1130E500202A0910302B09104028093F7019093DF
S1130E60F801A093F901B093FA0180910502813051
S1130E70B9F4FEDE8823A1F07EDC81E080931801C2
S1130E808091010290910202A0910302B0910402A8
S1130E908093FD019093FE01A093FF01B0930002A3
S1130EA0089580910702811142C0809101029091BE
S1130EB00202A0910302B09104024091F301509107
S1130EC0F4016091F5017091F601841B950BA60B5A
S1130ED0B70B883C9105A105B10548F18091010249
S1130EE090910202A0910302B09104028093F30155
S1130EF09093F401A093F501B093F6018BEE91E089
S1130F007BDD9091EB0180911001981781F088E0CE
S1130F10EBEEF1E0A0E1B1E001900D928A95E1F7EA
S1130F2080910502811103C081E080931801089526
S1130F3080910502813061F5809101029091020255
S1130F40A0910302B09104024091FD015091FE0171
S1130F506091FF0170910002841B950BA60BB70BE7
S1130F6080319742A105B10518F180E028D2809123
S1130F70010290910202A0910302B09104028093B5
S1130F80FD019093FE01A093FF01B0930002089528
S1130F908091010290910202A0910302B091040297
S1130FA08093FD019093FE01A093FF01B093000292
S1130FB0089580911801882319F01092180161C1D5
S1130FC008951ED082D84FDE85DB80E191E08FDD6D
S1130FD04BD178948091010290910202A091030276
S1130FE0B09104028093FD019093FE01A093FF0150
S1130FF0B0930002ECDE55DF10DF9ADFDADFFACFC0
S113100086E082BF83B7887F83BF83B7846083BF52
S113101087B7816087BF08951F920F920FB60F9212
S113102011248F939F93AF93BF9386E082BF8091E7
S1131030010290910202A0910302B0910402019670
S1131040A11DB11D8093010290930202A09303029B
S1131050B0930402BF91AF919F918F910F900FBEF7
S11310600F901F90189580910502811113C08091F3
S11310700702811109C080E191E0BEDC81E0809328
S113108007021092060207C080E191E0FCDC109296
S1131090070201C054DB81E0809318010895809118
S11310A0050281110EC080910702882371F080919E
S11310B0060290E0019666E070E096D18093060205
S11310C001C021DB81E0809318010895809105021D
S11310D081115AC080910702882309F459C0809174
S11310E00602823041F128F4882349F08130C1F0AE
S11310F04CC08430A9F150F18530E1F146C0E0E103
S1131100F1E08681978101969783868384339840A2
S1131110E0F180ED97E0909317018093160135C0BC
S1131120E0E1F1E085818F5F85838D3070F181E0AE
S1131130809315012AC0E0E1F1E084818F5F84830C
S1131140803218F181E0809314011FC0E0E1F1E0E6
S113115082818F5F82838831C0F01092120115C0A2
S1131160E0E1F1E081818F5F81838C3370F0109234
S113117011010BC0E0E1F1E080818F5F80838C334B
S113118020F01092100101C0A7DA81E080931801C9
S1131190089580910502811162C08091070288231D
S11311A009F461C080910602823051F128F4882349
S11311B051F08130D1F054C08430C9F160F18530F0
S11311C009F441C04DC0E0E1F1E0868197810197C7
S11311D097838683803D974008F042C083E398E07C
S11311E090931701809316013BC0E0E1F1E0858103
S11311F081508583811134C08CE08093150130C007
S1131200E0E1F1E0848181508483811129C08FE180
S11312108093140125C080911201811104C087E1DB
S1131220809312011DC081508093120119C08091D6
S11312301101811104C08BE38093110111C081500D
S1131240809311010DC080911001811104C08BE3C2
S11312508093100105C081508093100101C01DDAF4
S113126081E08093180108956CCD0895E82FF0E093
S1131270EE0FFF1FEB56FE4F0190F081E02D099514
S11312800895EF92FF920F931F93CF93DF93CDB7FF
S1131290DEB7E3970FB6F894DEBF0FBECDBF8091E3
S11312A0050281116AC060E083DD00E111E0F8010C
S11312B0948185811F929F931F928F9387818F932F
S11312C086818F938BE691E09F938F939E012F5F8E
S11312D03F4F79013F932F9315D2C70117DD60E08B
S11312E081E066DDF8012081918182811F922F9334
S11312F01F929F931F928F9380E891E09F938F9307
S1131300FF92EF92FFD1C70101DD809107020FB672
S1131310F894DEBF0FBECDBF882359F161E081E0B0
S11313204DDD809106028230A1F028F4882349F033
S1131330813059F037C08430A1F078F08530A9F0BD
S113134031C066E080E034DD2DC06BE080E030DD4C
S113135029C06EE080E02CDD25C066E081E028DD58
S113136021C069E081E024DD1DC06CE081E020DD66
S113137019C060E080E022DD15C060E080E01EDD81
S1131380BE016D5D7F4FCE0142964CDA60E080E095
S11313900FDDCE014296BADC60E081E009DDCE01CA
S11313A08396B4DCE3960FB6F894DEBF0FBECDBFD0
S11313B0DF91CF911F910F91FF90EF90089580934B
S11313C00502B6DC81E0809318010895809107023C
S11313D0811109C080910502811103C081E0EFCF22
S11313E0089580E0ECCF089597FB072E16F400943F
S11313F006D077FD08D072D107FC05D03EF4909555
S113140081959F4F0895709561957F4F0895A29F90
S1131410B001B39FC001A39F700D811D1124911DC4
S1131420B29F700D811D1124911D0895DF93CF93F8
S11314301F930F939A9DF02D219FF00D8B9DF00D1E
S11314408A9DE02DF10D039FF00D029FE00DF11D2B
S11314504E9DE00DF11D5E9DF00D4F9DF00D7F93AF
S11314606F93BF92AF925F934F93D501D0DF8B01FF
S1131470AC01D701CCDFEB01E80FF91FD6011FD077
S11314802F913F91D601C3DFC60FD71FE81FF91F65
S1131490AF91BF9114D02F913F91B9DFC60FD71FE1
S11314A0E81FF91FD601B3DFE60FF71F9801BE014D
S11314B0CF0111240F911F91CF91DF910895A7DFE0
S11314C0460F571FC81FD91F08F431960895689412
S11314D001C0E894F92FF12B0AF027C0A0E0B0E096
S11314E0E3E7FAE093C0092E05941AF479D01123A6
S11314F092F4F0E80F26FFEFE094F0940095109535
S1131500B094C094D094A194BF0ACF0ADF0AEF0A22
S1131510FF0A0F0B1F0B13D007FC62D0CDB7DEB749
S1131520ECE090C0689401C0E8948F929F92CF93AE
S1131530DF9305D0DF91CF919F908F9008958824F9
S11315409924F401E401B0E49F93AA279A158B042B
S11315509C04ED05FE05CF05D007A10798F4AD2F37
S1131560DC2FCF2FFE2FE92D982C892E982F872F33
S1131570762F652F542F432F322F2227B85031F75F
S1131580BF9127C01B2EBF91BB27220F331F441FBF
S1131590551F661F771F881F991F881C991CEE1FF3
S11315A0FF1FCC1FDD1FAA1FBB1F8A149B04EC0561
S11315B0FD05CE05DF05A007B10748F08A189B0892
S11315C0EC09FD09CE09DF09A00BB10B21601A94C7
S11315D0E1F62EF49401AF01BE01CD01000C089593
S11315E0609570958095909530954095509521958E
S11315F03F4F4F4F5F4F6F4F7F4F8F4F9F4F089518
S11316002F923F924F925F926F927F928F929F920E
S1131610AF92BF92CF92DF92EF92FF920F931F93FC
S1131620CF93DF93CDB7DEB7CA1BDB0B0FB6F894AD
S1131630DEBF0FBECDBF09942A88398848885F84ED
S11316406E847D848C849B84AA84B984C884DF805E
S1131650EE80FD800C811B81AA81B981CE0FD11D42
S11316600FB6F894DEBF0FBECDBFED0108950F9302
S1131670083090F0982F872F762F652F542F432F03
S1131680322F22270850F4CF220F331F441F551F37
S1131690661F771F881F991F0A95B2F70F91089547
S11316A02A0D3B1D4C1D5D1D6E1D7F1D801F911F4E
S11316B008952A193B094C095D096E097F09800BBD
S11316C0910B08950024A7FD00942A1730054005C6
S11316D0500560057005800590050895AA1BBB1B85
S11316E051E107C0AA1FBB1FA617B70710F0A61B1E
S11316F0B70B881F991F5A95A9F780959095BC013F
S1131700CD0108950F931F93CF93DF93CDB7DEB729
S11317102E970FB6F894DEBF0FBECDBF0D891E897C
S113172086E08C831A8309838FEF9FE79E838D83E2
S1131730AE01475E5F4F6F89788DCE01019610D060
S1131740EF81F885E00FF11F10822E960FB6F89402
S1131750DEBF0FBECDBFDF91CF911F910F910895D2
S11317602F923F924F925F926F927F928F929F92AD
S1131770AF92BF92CF92DF92EF92FF920F931F939B
S1131780CF93DF93CDB7DEB72B970FB6F894DEBFB8
S11317900FBECDBF6C017B018A01FC01178216824A
S11317A0838181FFBFC1CE0101963C01F601938183
S11317B0F70193FD859193FF81917F01882309F4BB
S11317C0ADC1853239F493FD859193FF81917F01F9
S11317D0853221F4B60190E0D6D1E8CF912C212CAA
S11317E0312CFFE1F315D8F08B3279F038F48032E4
S11317F079F08332A1F4232D20611DC08D3261F074
S1131800803369F4232D216016C0832D8260382E25
S1131810E32DE4603E2E2AC0F32DF8601DC037FC92
S11318202DC020ED280F2A3040F08E32B9F436FC5A
S113183075C1232D2064322E19C036FE06C08AE0FD
S1131840989E200D1124922E11C0EAE02E9E200DA8
S11318501124222EF32DF0623F2E08C08C3621F481
S1131860832D8068382E02C0883641F4F70193FD39
S1131870859193FF81917F018111B3CF982F9F7D33
S11318809554933028F40C5F1F4F9FE399830DC048
S1131890833631F0833771F0833509F055C020C0A9
S11318A0F801808189830E5F1F4F88248394912CD3
S11318B0530112C02801F2E04F0E511CF801A08020
S11318C0B18036FE03C0692D70E002C06FEF7FEF78
S11318D0C5014ED14C018201F32DFF773F2E15C077
S11318E0280122E0420E511CF801A080B18036FE8E
S11318F003C0692D70E002C06FEF7FEFC5012DD1E9
S11319004C01F32DF0683F2E820133FC19C0822D67
S113191090E088169906A0F4B60180E290E033D1F5
S11319202A94F5CFF50137FC859137FE81915F014B
S1131930B60190E028D121102A9421E0821A91085E
S11319408114910479F7E1C0843611F0893639F5B0
S1131950F80137FE07C060817181828193810C5F39
S11319601F4F08C060817181072E000C880B990BF2
S11319700E5F1F4FF32DFF763F2E97FF09C0909502
S11319808095709561957F4F8F4F9F4FF0683F2EE4
S11319902AE030E0A30133D1882E861844C085376D
S11319A031F4232D2F7EB22E2AE030E025C0932D72
S11319B0997FB92E8F36C1F018F4883579F0AEC00E
S11319C0803719F0883721F0A9C0E92FE061BE2ED5
S11319D0B4FE0DC0FB2DF460BF2E09C034FE0AC056
S11319E0292F2660B22E06C028E030E005C020E191
S11319F030E002C020E132E0F801B7FE07C06081A8
S1131A007181828193810C5F1F4F06C06081718157
S1131A1080E090E00E5F1F4FA301F1D0882E86185E
S1131A20FB2DFF773F2E36FE0DC0232D2E7FA22ED9
S1131A30891458F434FE0BC032FC09C0832D8E7E09
S1131A40A82E05C0B82CA32C03C0B82C01C0B92CF7
S1131A50A4FE0FC0FE01E80DF11D8081803321F446
S1131A609A2D997EA92E09C0A2FE06C0B394B39400
S1131A7004C08A2D867809F0B394A3FC10C0A0FE9C
S1131A8006C0B21480F4280C922C9B180DC0B2141A
S1131A9058F4B60180E290E076D0B394F8CFB21453
S1131AA018F42B1802C0982C212CA4FE0FC0B601E8
S1131AB080E390E068D0A2FE16C0A1FC03C088E7D2
S1131AC090E002C088E590E0B6010CC08A2D8678CB
S1131AD051F0A1FE02C08BE201C080E2A7FC8DE2BE
S1131AE0B60190E050D0891430F4B60180E390E060
S1131AF04AD09A94F8CF8A94F301E80DF11D8081BD
S1131B00B60190E040D08110F6CF222009F44ECEE9
S1131B10B60180E290E037D02A94F7CFF6018681AF
S1131B20978102C08FEF9FEF2B960FB6F894DEBF1C
S1131B300FBECDBFDF91CF911F910F91FF90EF901A
S1131B40DF90CF90BF90AF909F908F907F906F90D9
S1131B505F904F903F902F900895FC010590615045
S1131B6070400110D8F7809590958E0F9F1F0895AF
S1131B70FC016150704001900110D8F78095909558
S1131B808E0F9F1F08950F931F93CF93DF93FB0135
S1131B90238121FD03C08FEF9FEF2CC022FF16C0CD
S1131BA046815781248135814217530744F4A0812B
S1131BB0B1819D012F5F3F4F318320838C93268118
S1131BC037812F5F3F4F3783268314C08B01EC018D
S1131BD0FB010084F185E02D0995892BE1F6D801FC
S1131BE016968D919C911797019617969C938E93B8
S1131BF01697CE01DF91CF911F910F910895FA01AD
S1131C00AA27283051F1203181F1E8946F936E7F37
S1131C106E5F7F4F8F4F9F4FAF4FB1E03ED0B4E028
S1131C203CD0670F781F891F9A1FA11D680F791F69
S1131C308A1F911DA11D6A0F711D811D911DA11D7A
S1131C4020D009F468943F912AE0269F112430198A
S1131C50305D3193DEF6CF010895462F4770405D25
S1131C604193B3E00FD0C9F7F6CF462F4F70405DD4
S1131C704A3318F0495D31FD4052419302D0A9F72F
S1131C80EACFB4E0A6959795879577956795BA9529
S1131C90C9F700976105710508959B01AC010A2EEF
S1131CA006945795479537952795BA95C9F7620FC6
S1111CB0731F841F951FA01D0895F894FFCF85
S1131CBE0101010101010101010101010101010102
S1131CCE00000C010107EA07010304050607302092
S1131CDE202020202020202020202020202000250D
S1131CEE2D313673003D4552524F52202020202074
S1131CFE2020202020003D2573002020202020209D
S1131D0E202020202020202020200020303D2B3495
S1131D1E35362A3738392D3132332F444154453A2A
S1131D2E20253034642D253032642D253032640064
S1131D3E54494D453A20253032643A253032643ABE
S1131D4E2530326400C90866084F083308E60900D6
S9030000FC
